S0220000656C6563747269635F77617465725F6865617465725F70726F6A2E7372656343
S11300000C942A000C9434050C9479050C94B705CF
S11300100C9401060C9447000C9447000C94470080
S11300200C9447000C9447000C9447000C94470030
S11300300C9447000C9447000C9447000C94470020
S11300400C9447000C9447000C9447000C94470010
S11300500C94470011241FBECFE5D8E0DEBFCDBF0E
S113006010E0A0E6B0E0EEEFFEE002C005900D92D5
S1130070A236B107D9F720E0A2E6B0E001C01D9294
S1130080A63CB207E1F70E94C8030C947D070C94C8
S113009000008091690090916A00A0916B00B0917A
S11300A06C000196A11DB11D8093690090936A00B4
S11300B0A0936B00B0936C00089580916700811148
S11300C010C081E08093670081EC90E00E94D00230
S11300D04CE251E060E070E08DE590E00E9499060A
S11300E008951092670081EC90E00E94E2024CEBCC
S11300F052E060E070E08DE590E00E94990608957A
S113010080916800811112C081E08093680080E0D2
S11301100E94BB0381E00E94BB034CE251E060E01B
S113012070E080E890E00E949906089510926800BB
S113013080E00E945F0381E00E945F034CEB52E089
S113014060E070E080E890E00E94990608950F93C3
S11301501F93809166008F5F809366000E94A702C0
S11301604091620050916300609164007091650059
S11301708A019B01080F111D211D311DC901B80100
S11301800093620010936300209364003093650031
S1130190209166002A3091F42AE030E040E050E0FB
S11301A00E94410720936000109262001092630045
S11301B01092640010926500109266001F910F91D6
S11301C0089580936D001092690010926A00109255
S11301D06B0010926C008130F1F020F0823009F451
S11301E04CC008950E9434070E943C070E94AE054B
S11301F00E942B050E9470050E94A1020E948E029B
S113020080E00E94BB0381E00E94BB0381EC90E08C
S11302100E94D00208950E9427050E946C050E9446
S1130220370780E00E945F0381E00E945F0362E081
S113023081EC90E00E94040381EC90E00E94E202D1
S113024080E890E00E94F30644E650E060E070E04D
S113025087EA90E00E94990641E050E060E070E097
S11302608CE693E00E94990641E050E060E070E083
S113027089E490E00E949906089561E081EC90E0A1
S11302800E94040381EC90E00E94E2024CEB52E0F5
S113029060E070E080E890E00E94990608950F9372
S11302A00E94E4050E941C050E9461050E94A605A7
S11302B00E94CD030E94E8050E9493020E948002DE
S11302C00E94A6020E94270305EC26EC47EC60E09E
S11302D081EC90E00E94B8020E94940680E00E94A3
S11302E0E10080E592E00E942F0588E692E00E94FA
S11302F0740584E492E00E94B20580E090E00E94DC
S11303001205809361008352893218F08CE3809344
S113031061000F910895CF9380916D00813071F049
S113032020F0823009F45EC0ADC081EC90E00E9400
S1130330D0020E94A1020E948E02A4C060916000BB
S1130340CDEC6C9F812D1124869586958695880F1A
S1130350982F990F990F890F681B81E00E9454030D
S1130360609160006C9F612D112466956695669579
S113037080E00E9454032091600030E0809161008D
S113038090E0AC0145505109241735076CF40E94E4
S11303908E020E949C024CEB52E060E070E08DE51E
S11303A090E00E9499066EC00596821793076CF43C
S11303B00E94A1020E9489028DE590E00E94F3064A
S11303C081EC90E00E94E2025DC00E94A1020E94C2
S11303D08E028DE590E00E94F30681EC90E00E948D
S11303E0E20250C060916100CDEC6C9F812D11241C
S11303F0869586958695880F982F990F990F890F62
S1130400681B81E00E945403609161006C9F612D20
S1130410112466956695669580E00E94540361E018
S113042081EC90E00E9404032091600030E0809110
S1130430610090E0AC0145505109241735072CF4B4
S11304400E948E020E949C020DC00596821793079B
S11304502CF40E94A1020E94890204C00E94A102FD
S11304600E948E028091690090916A00A0916B00B5
S1130470B0916C0089389341A105B10518F081E071
S11304800E94E100CF91089580916D00811104C014
S113049081E00E94E100089580E00E94E100089557
S11304A080916D00823081F4809161008B5F809334
S11304B061008C3418F08BE48093610060916100DA
S11304C080E090E00E94090582E00E94E100089526
S11304D080916D00823081F4809161008550809319
S11304E06100833218F483E28093610060916100BB
S11304F080E090E00E94090582E00E94E1000895F6
S113050061E086EA0E94F30360E086EA0E947E04CA
S1130510089561E086EA0E947E04089560E086EA18
S11305200E947E04089561E085EA0E94F30360E07E
S113053085EA0E947E04089561E085EA0E947E04B3
S1130540089560E085EA0E947E040895089587E096
S11305500E94DD039B01AC01A8EEB3E00E94630797
S113056026EF37E240E050E00E944107822F0895D1
S11305700F93CF93FC01842FC22F63834083218385
S11305800283148261E00E94F30361E08C2F0E94D5
S1130590F30361E0802F0E94F303CF910F9108953C
S11305A0CF93DF93EC016B8188810E947E046B8181
S11305B089810E947E046B818A810E947E04DF917E
S11305C0CF9108950F931F93CF938C01FC01C481A5
S11305D08381813009F4C095C2FB662760F9F80174
S11305E080810E947E04C1FB662760F9F801818145
S11305F00E947E046C2F6170F80182810E947E0447
S1130600CF911F910F9108950F931F93CF938C0156
S1130610C62FFC0164838381813009F4C095C2FB39
S1130620662760F9F80180810E947E04C1FB662779
S113063060F9F80181810E947E046C2F6170F801D9
S113064082810E947E04CF911F910F91089561E0F1
S113065083EB0E94F30361E081EB0E94F30361E00A
S113066080EB0E94F30361E084EB0E94F30361E0FA
S113067085EB0E94F30361E086EB0E94F30361E0E3
S113068087EB0E94F30361E080EA0E94F30361E0D8
S113069081EA0E94F30361E082EA0E94F30361E0CD
S11306A083EA0E94F3030895882319F0813021F02E
S11306B008956093730008956093720008958823E9
S11306C019F0813029F0089581E080937100089534
S11306D081E080937000089560917300617084EBF1
S11306E00E947E04609173006695617085EB0E94A0
S11306F07E046091730062FB662760F986EB0E94BA
S11307007E046091730063FB662760F987EB0E94A7
S11307107E046091710083EB0E947E0460916F00FF
S113072080EB0E947E0460917200617080EA0E94F6
S11307307E04609172006695617081EA0E947E0475
S11307406091720062FB662760F982EA0E947E046F
S11307506091720063FB662760F983EA0E947E045D
S11307606091700081EB0E947E0460916E0080EBCA
S11307700E947E040895882319F0813021F005C079
S11307801092710002C0109270000E946C030895D0
S11307900E944F010E948B01FDCF86B1806886B90B
S11307A087B18F7387B986B1876086B987B18F7D2A
S11307B087B986B18F7D86B9089597B1907E8F7180
S11307C0892B87B986B1806486B9349BFECF84B106
S11307D065B170E0762F6627680F711D072E000C37
S11307E0880B990B0895982F9F70807F662309F4D6
S11307F042C0613009F081C0803BB1F018F4803A06
S113080031F00895803CE9F0803D41F108954AB308
S113081021E030E0B90102C0660F771F9A95E2F734
S1130820CB01842B8ABB089547B321E030E0B901A2
S113083002C0660F771F9A95E2F7CB01842B87BB22
S1130840089544B321E030E0B90102C0660F771F78
S11308509A95E2F7CB01842B84BB089541B321E040
S113086030E0B90102C0660F771F9A95E2F7CB0119
S1130870842B81BB0895803BB9F018F4803A31F0A1
S11308800895803CF9F0803D59F108954AB321E080
S113089030E0B90102C0660F771F9A95E2F7CB01E9
S11308A0809584238ABB089547B321E030E0B901E1
S11308B002C0660F771F9A95E2F7CB0180958423D7
S11308C087BB089544B321E030E0B90102C0660F4C
S11308D0771F9A95E2F7CB018095842384BB089512
S11308E041B321E030E0B90102C0660F771F9A9549
S11308F0E2F7CB018095842381BB0895982F9F70E4
S1130900807F662309F442C0613009F081C0803BD6
S1130910B1F018F4803A31F00895803CE9F0803D5C
S113092041F108954BB321E030E0B90102C0660FF4
S1130930771F9A95E2F7CB01842B8BBB089548B3BC
S113094021E030E0B90102C0660F771F9A95E2F703
S1130950CB01842B88BB089545B321E030E0B90175
S113096002C0660F771F9A95E2F7CB01842B85BBF3
S1130970089542B321E030E0B90102C0660F771F49
S11309809A95E2F7CB01842B82BB0895803BB9F0A2
S113099018F4803A31F00895803CF9F0803D59F123
S11309A008954BB321E030E0B90102C0660F771F10
S11309B09A95E2F7CB01809584238BBB089548B3C5
S11309C021E030E0B90102C0660F771F9A95E2F783
S11309D0CB018095842388BB089545B321E030E0A2
S11309E0B90102C0660F771F9A95E2F7CB01809593
S11309F0842385BB089542B321E030E0B90102C0ED
S1130A00660F771F9A95E2F7CB018095842382BB0A
S1130A100895E199FECF8EBB93709FBB6DBBE29AA4
S1130A20E19A0895E199FECF8EBB93709FBB8CB37E
S1130A3081608CBB8DB3089585B78E7F85BF85B7E4
S1130A40826085BF60E082ED0E94F30308958BB756
S1130A5080648BBF08958BB78F7B8BBF0895909371
S1130A6075008093740008951F920F920FB60F9231
S1130A7011242F933F934F935F936F937F938F939F
S1130A809F93AF93BF93EF93FF93809174009091E2
S1130A907500892B29F0E0917400F0917500099597
S1130AA0FF91EF91BF91AF919F918F917F916F9142
S1130AB05F914F913F912F910F900FBE0F901F9018
S1130AC0189585B78B7F85BF85B7886085BF60E043
S1130AD083ED0E94F30308958BB780688BBF08955C
S1130AE08BB78F778BBF08959093770080937600B0
S1130AF008951F920F920FB60F9211242F933F93D4
S1130B004F935F936F937F938F939F93AF93BF9311
S1130B10EF93FF938091760090917700892B29F0D1
S1130B20E0917600F09177000995FF91EF91BF91E4
S1130B30AF919F918F917F916F915F914F913F9171
S1130B402F910F900FBE0F901F90189584B78F7B35
S1130B5084BF60E082EB0E94F30308958BB7806248
S1130B608BBF0895909379008093780008951F9225
S1130B700F920FB60F9211242F933F934F935F93CD
S1130B806F937F938F939F93AF93BF93EF93FF9351
S1130B908091780090917900892B29F0E091780078
S1130BA0F09179000995FF91EF91BF91AF919F91D9
S1130BB08F917F916F915F914F913F912F910F9002
S1130BC00FBE0F901F9018958FB780688FBF089540
S1130BD085B5806485BD85B5877F85BD85B58F7CEA
S1130BE085BD14BC88EC83BD85B5887F826085BDD6
S1130BF089B7806889BF089590937F0080937E00B1
S1130C0008951F920F920FB60F9211242F933F93C2
S1130C104F935F936F937F938F939F93AF93BF9300
S1130C20EF93FF9380917A0090917B00A0917C00D8
S1130C30B0917D000196A11DB11D80937A0090931F
S1130C407B00A0937C00B0937D000A97A105B105B9
S1130C5081F410927A0010927B0010927C00109222
S1130C607D0014BCE0917E00F0917F00309709F084
S1130C700995FF91EF91BF91AF919F918F917F91D2
S1130C806F915F914F913F912F910F900FBE0F90F5
S1130C901F9018951F93CF93DF9310E02AC0C12FA4
S1130CA0D0E0FE01EE0FFF1FEC0FFD1FEE0FFF1F44
S1130CB0EB57FF4F2281338144815581609180003D
S1130CC07091810080918200909183000E9441077D
S1130CD0672B682B692B61F4CE01880F991FC80F0D
S1130CE0D91FCC0FDD1FCB57DF4FE881F981099560
S1130CF01F5F80918400181790F28091800090917A
S1130D008100A0918200B09183000196A11DB11DC4
S1130D108093800090938100A0938200B09383001D
S1130D20DF91CF911F9108958AE496E00E94FC051B
S1130D3008958F929F92AF92BF92CF92DF92EF92DB
S1130D40FF920F931F934A015B01409184004A3044
S1130D50A0F03EC0F801EE0FFF1FE00FF11FEE0FF1
S1130D60FF1FEB57FF4F608171816817790789F086
S1130D700F5F1F4F2F4F3F4F03C000E010E098015B
S1130D80C42ED12CE12CF12C0C151D052E053F058C
S1130D9008F3B801660F771FFB01E00FF11FEE0F98
S1130DA0FF1FEB57FF4F91838083FB01E00FF11F7F
S1130DB0EE0FFF1FEB57FF4F82829382A482B5820E
S1130DC00C151D052E053F0519F44F5F4093840053
S1130DD01F910F91FF90EF90DF90CF90BF90AF9055
S1130DE09F908F9008950F931F93CF93C091840089
S1130DF0C1112AC035C0FA01EE0FFF1FE40FF51F21
S1130E00EE0FFF1FEB57FF4F208131812817390761
S1130E10B1F48C2F90E00197DF01FC01EE0FFF1F6E
S1130E20E80FF91FEE0FFF1FEB57FF4F86E001900D
S1130E300D928A95E1F7C150C093840011C04F5FB1
S1130E405F4F6F4F7F4F03C040E050E0BA010C2F5B
S1130E5010E020E030E0401751076207730758F2B2
S1130E60CF911F910F9108951092840008958AE400
S1130E7096E00E94FC05089580E090E00E94FC0545
S1130E800895A1E21A2EAA1BBB1BFD010DC0AA1FC7
S1130E90BB1FEE1FFF1FA217B307E407F50720F0DF
S1130EA0A21BB30BE40BF50B661F771F881F991F5A
S1130EB01A9469F760957095809590959B01AC01A3
S1130EC0BD01CF0108950E946E07A59F900DB49FA8
S1130ED0900DA49F800D911D11240895A29FB0012F
S1130EE0B39FC001A39F700D811D1124911DB29F5A
S1110EF0700D811D1124911D0895F894FFCFFB
S1050EFE3C3C76
S9030000FC
